{
  "contractName": "Owner",
  "abi": [
    {
      "constant": false,
      "inputs": [
        {
          "name": "_name",
          "type": "string"
        },
        {
          "name": "_ip",
          "type": "string"
        }
      ],
      "name": "setOwnerAddress",
      "outputs": [],
      "payable": false,
      "stateMutability": "nonpayable",
      "type": "function"
    },
    {
      "constant": true,
      "inputs": [],
      "name": "getOwnerAddress",
      "outputs": [
        {
          "name": "",
          "type": "string"
        },
        {
          "name": "",
          "type": "string"
        },
        {
          "name": "",
          "type": "address"
        }
      ],
      "payable": false,
      "stateMutability": "view",
      "type": "function"
    },
    {
      "constant": false,
      "inputs": [
        {
          "name": "name",
          "type": "string"
        },
        {
          "name": "ip",
          "type": "string"
        },
        {
          "name": "chain_address",
          "type": "address"
        }
      ],
      "name": "addResource",
      "outputs": [],
      "payable": false,
      "stateMutability": "nonpayable",
      "type": "function"
    },
    {
      "constant": true,
      "inputs": [],
      "name": "getResources",
      "outputs": [
        {
          "name": "",
          "type": "string"
        },
        {
          "name": "",
          "type": "string"
        },
        {
          "name": "",
          "type": "address"
        }
      ],
      "payable": false,
      "stateMutability": "view",
      "type": "function"
    }
  ],
  "bytecode": "0x608060405260006040519080825280602002602001820160405280156100345781602001602082028038833980820191505090505b506003908051906020019061004a92919061005d565b5034801561005757600080fd5b5061012a565b8280548282559060005260206000209081019282156100d6579160200282015b828111156100d55782518260006101000a81548173ffffffffffffffffffffffffffffffffffffffff021916908373ffffffffffffffffffffffffffffffffffffffff1602179055509160200191906001019061007d565b5b5090506100e391906100e7565b5090565b61012791905b8082111561012357600081816101000a81549073ffffffffffffffffffffffffffffffffffffffff0219169055506001016100ed565b5090565b90565b611307806101396000396000f3fe608060405234801561001057600080fd5b506004361061004c5760003560e01c80630c4f65bd146100515780631f1152c314610173578063aee87cba146102e5578063c1cc57b014610437575b600080fd5b610059610559565b6040518080602001806020018473ffffffffffffffffffffffffffffffffffffffff1673ffffffffffffffffffffffffffffffffffffffff168152602001838103835286818151815260200191508051906020019080838360005b838110156100cf5780820151818401526020810190506100b4565b50505050905090810190601f1680156100fc5780820380516001836020036101000a031916815260200191505b50838103825285818151815260200191508051906020019080838360005b8381101561013557808201518184015260208101905061011a565b50505050905090810190601f1680156101625780820380516001836020036101000a031916815260200191505b509550505050505060405180910390f35b6102e36004803603606081101561018957600080fd5b81019080803590602001906401000000008111156101a657600080fd5b8201836020820111156101b857600080fd5b803590602001918460018302840111640100000000831117156101da57600080fd5b91908080601f016020809104026020016040519081016040528093929190818152602001838380828437600081840152601f19601f8201169050808301925050505050505091929192908035906020019064010000000081111561023d57600080fd5b82018360208201111561024f57600080fd5b8035906020019184600183028401116401000000008311171561027157600080fd5b91908080601f016020809104026020016040519081016040528093929190818152602001838380828437600081840152601f19601f820116905080830192505050505050509192919290803573ffffffffffffffffffffffffffffffffffffffff1690602001909291905050506106d0565b005b610435600480360360408110156102fb57600080fd5b810190808035906020019064010000000081111561031857600080fd5b82018360208201111561032a57600080fd5b8035906020019184600183028401116401000000008311171561034c57600080fd5b91908080601f016020809104026020016040519081016040528093929190818152602001838380828437600081840152601f19601f820116905080830192505050505050509192919290803590602001906401000000008111156103af57600080fd5b8201836020820111156103c157600080fd5b803590602001918460018302840111640100000000831117156103e357600080fd5b91908080601f016020809104026020016040519081016040528093929190818152602001838380828437600081840152601f19601f82011690508083019250505050505050919291929050505061087a565b005b61043f6108f5565b6040518080602001806020018473ffffffffffffffffffffffffffffffffffffffff1673ffffffffffffffffffffffffffffffffffffffff168152602001838103835286818151815260200191508051906020019080838360005b838110156104b557808201518184015260208101905061049a565b50505050905090810190601f1680156104e25780820380516001836020036101000a031916815260200191505b50838103825285818151815260200191508051906020019080838360005b8381101561051b578082015181840152602081019050610500565b50505050905090810190601f1680156105485780820380516001836020036101000a031916815260200191505b509550505050505060405180910390f35b6060806000806000016000600101600060020160009054906101000a900473ffffffffffffffffffffffffffffffffffffffff16828054600181600116156101000203166002900480601f0160208091040260200160405190810160405280929190818152602001828054600181600116156101000203166002900480156106225780601f106105f757610100808354040283529160200191610622565b820191906000526020600020905b81548152906001019060200180831161060557829003601f168201915b50505050509250818054600181600116156101000203166002900480601f0160208091040260200160405190810160405280929190818152602001828054600181600116156101000203166002900480156106be5780601f10610693576101008083540402835291602001916106be565b820191906000526020600020905b8154815290600101906020018083116106a157829003601f168201915b50505050509150925092509250909192565b60008383836040516106e190610a81565b8080602001806020018473ffffffffffffffffffffffffffffffffffffffff1673ffffffffffffffffffffffffffffffffffffffff168152602001838103835286818151815260200191508051906020019080838360005b83811015610754578082015181840152602081019050610739565b50505050905090810190601f1680156107815780820380516001836020036101000a031916815260200191505b50838103825285818151815260200191508051906020019080838360005b838110156107ba57808201518184015260208101905061079f565b50505050905090810190601f1680156107e75780820380516001836020036101000a031916815260200191505b5095505050505050604051809103906000f08015801561080b573d6000803e3d6000fd5b50905060038190806001815401808255809150509060018203906000526020600020016000909192909190916101000a81548173ffffffffffffffffffffffffffffffffffffffff021916908373ffffffffffffffffffffffffffffffffffffffff1602179055505050505050565b81600080019080519060200190610892929190610a8e565b5080600060010190805190602001906108ac929190610a8e565b5033600060020160006101000a81548173ffffffffffffffffffffffffffffffffffffffff021916908373ffffffffffffffffffffffffffffffffffffffff1602179055505050565b60608060006060806000600360008154811061090d57fe5b9060005260206000200160009054906101000a900473ffffffffffffffffffffffffffffffffffffffff1673ffffffffffffffffffffffffffffffffffffffff1663b379c8a86040518163ffffffff1660e01b815260040160006040518083038186803b15801561097d57600080fd5b505afa158015610991573d6000803e3d6000fd5b505050506040513d6000823e3d601f19601f8201168201806040525060608110156109bb57600080fd5b8101908080516401000000008111156109d357600080fd5b828101905060208101848111156109e957600080fd5b8151856001820283011164010000000082111715610a0657600080fd5b50509291906020018051640100000000811115610a2257600080fd5b82810190506020810184811115610a3857600080fd5b8151856001820283011164010000000082111715610a5557600080fd5b505092919060200180519060200190929190505050925092509250828282955095509550505050909192565b6107a880610b3483390190565b828054600181600116156101000203166002900490600052602060002090601f016020900481019282601f10610acf57805160ff1916838001178555610afd565b82800160010185558215610afd579182015b82811115610afc578251825591602001919060010190610ae1565b5b509050610b0a9190610b0e565b5090565b610b3091905b80821115610b2c576000816000905550600101610b14565b5090565b9056fe608060405234801561001057600080fd5b506040516107a83803806107a88339810180604052606081101561003357600080fd5b81019080805164010000000081111561004b57600080fd5b8281019050602081018481111561006157600080fd5b815185600182028301116401000000008211171561007e57600080fd5b5050929190602001805164010000000081111561009a57600080fd5b828101905060208101848111156100b057600080fd5b81518560018202830111640100000000821117156100cd57600080fd5b505092919060200180519060200190929190505050826000800190805190602001906100fa929190610161565b508160006001019080519060200190610114929190610161565b5080600060020160006101000a81548173ffffffffffffffffffffffffffffffffffffffff021916908373ffffffffffffffffffffffffffffffffffffffff160217905550505050610206565b828054600181600116156101000203166002900490600052602060002090601f016020900481019282601f106101a257805160ff19168380011785556101d0565b828001600101855582156101d0579182015b828111156101cf5782518255916020019190600101906101b4565b5b5090506101dd91906101e1565b5090565b61020391905b808211156101ff5760008160009055506001016101e7565b5090565b90565b610593806102156000396000f3fe608060405234801561001057600080fd5b50600436106100365760003560e01c806383899e441461003b578063b379c8a8146101ad575b600080fd5b6101ab6004803603606081101561005157600080fd5b810190808035906020019064010000000081111561006e57600080fd5b82018360208201111561008057600080fd5b803590602001918460018302840111640100000000831117156100a257600080fd5b91908080601f016020809104026020016040519081016040528093929190818152602001838380828437600081840152601f19601f8201169050808301925050505050505091929192908035906020019064010000000081111561010557600080fd5b82018360208201111561011757600080fd5b8035906020019184600183028401116401000000008311171561013957600080fd5b91908080601f016020809104026020016040519081016040528093929190818152602001838380828437600081840152601f19601f820116905080830192505050505050509192919290803573ffffffffffffffffffffffffffffffffffffffff1690602001909291905050506102cf565b005b6101b561034b565b6040518080602001806020018473ffffffffffffffffffffffffffffffffffffffff1673ffffffffffffffffffffffffffffffffffffffff168152602001838103835286818151815260200191508051906020019080838360005b8381101561022b578082015181840152602081019050610210565b50505050905090810190601f1680156102585780820380516001836020036101000a031916815260200191505b50838103825285818151815260200191508051906020019080838360005b83811015610291578082015181840152602081019050610276565b50505050905090810190601f1680156102be5780820380516001836020036101000a031916815260200191505b509550505050505060405180910390f35b826000800190805190602001906102e79291906104c2565b5081600060010190805190602001906103019291906104c2565b5080600060020160006101000a81548173ffffffffffffffffffffffffffffffffffffffff021916908373ffffffffffffffffffffffffffffffffffffffff160217905550505050565b6060806000806000016000600101600060020160009054906101000a900473ffffffffffffffffffffffffffffffffffffffff16828054600181600116156101000203166002900480601f0160208091040260200160405190810160405280929190818152602001828054600181600116156101000203166002900480156104145780601f106103e957610100808354040283529160200191610414565b820191906000526020600020905b8154815290600101906020018083116103f757829003601f168201915b50505050509250818054600181600116156101000203166002900480601f0160208091040260200160405190810160405280929190818152602001828054600181600116156101000203166002900480156104b05780601f10610485576101008083540402835291602001916104b0565b820191906000526020600020905b81548152906001019060200180831161049357829003601f168201915b50505050509150925092509250909192565b828054600181600116156101000203166002900490600052602060002090601f016020900481019282601f1061050357805160ff1916838001178555610531565b82800160010185558215610531579182015b82811115610530578251825591602001919060010190610515565b5b50905061053e9190610542565b5090565b61056491905b80821115610560576000816000905550600101610548565b5090565b9056fea165627a7a72305820a3ecaa7529d2f3d9dcafd5deb9dcefec65a78776f4bef98b376ab1ba0e643f160029a165627a7a72305820d1c63a0b11ab2c510f2d8a46ea927a8305c9b9b17ea5a2c2b1cfe28852167b010029",
  "source": "pragma solidity 0.5.8;\r\nimport \"./Info.sol\";\r\nimport \"./Resource.sol\";\r\n\r\ncontract Owner is Info {\r\n    AddressInfo owner_address;\r\n    Resource[] resources = new Resource[](0);\r\n    \r\n    //functions to setup and get owner Information:\r\n    //setOwnerAddress function sets the ip and nae an blockchain address of owner:\r\n    //@param _name: real name of owner.\r\n    //@param _ip: IP address of owner.\r\n    //@param _chain_address retrieved from msg.sender.\r\n    function setOwnerAddress(string memory _name,string memory _ip)\r\n    public\r\n    {\r\n        owner_address.name=_name;\r\n        owner_address.ip=_ip;\r\n        owner_address.chain_address=msg.sender;\r\n    }\r\n    \r\n    function getOwnerAddress() \r\n    public \r\n    view \r\n    returns(string memory, string memory,address){\r\n        return (owner_address.name, owner_address.ip, owner_address.chain_address);\r\n    }\r\n    \r\n    //functions to set and get resource properties:\r\n    function addResource(string memory name, string memory ip, address chain_address) public{\r\n        Resource new_instance = new Resource(name,ip,chain_address);\r\n        resources.push(new_instance);\r\n    }\r\n    \r\n    function getResources()\r\n    view\r\n    public\r\n    returns(string memory,string memory,address){\r\n        (string memory name, string memory ip,address addr) = resources[0].getResourceInfo();\r\n        return(name,ip,addr);\r\n    }\r\n}\r\n\r\n\r\n\r\n\r\n\r\n\r\n\r\n//ends",
  "sourcePath": "/mnt/d/My Job/Applications/DesktopApps/Ethereum/University-Project/contracts/Owner.sol",
  "compiler": {
    "name": "solc",
    "version": "0.5.8+commit.23d335f2.Emscripten.clang"
  },
  "schemaVersion": "3.0.10",
  "updatedAt": "2019-06-09T16:42:06.688Z",
  "devdoc": {
    "methods": {}
  },
  "userdoc": {
    "methods": {}
  }
}