{
  "contractName": "Owner",
  "abi": [
    {
      "inputs": [
        {
          "name": "_name",
          "type": "string"
        },
        {
          "name": "_ip",
          "type": "string"
        }
      ],
      "payable": false,
      "stateMutability": "nonpayable",
      "type": "constructor"
    },
    {
      "anonymous": false,
      "inputs": [
        {
          "indexed": false,
          "name": "Name",
          "type": "string"
        },
        {
          "indexed": false,
          "name": "IP",
          "type": "string"
        },
        {
          "indexed": false,
          "name": "ChainAddress",
          "type": "address"
        }
      ],
      "name": "printResourceEvent",
      "type": "event"
    },
    {
      "constant": true,
      "inputs": [],
      "name": "getOwnerAddress",
      "outputs": [
        {
          "name": "",
          "type": "string"
        },
        {
          "name": "",
          "type": "string"
        },
        {
          "name": "",
          "type": "address"
        }
      ],
      "payable": false,
      "stateMutability": "view",
      "type": "function"
    },
    {
      "constant": false,
      "inputs": [
        {
          "name": "name",
          "type": "string"
        },
        {
          "name": "ip",
          "type": "string"
        },
        {
          "name": "chain_address",
          "type": "address"
        }
      ],
      "name": "addResource",
      "outputs": [],
      "payable": false,
      "stateMutability": "nonpayable",
      "type": "function"
    },
    {
      "constant": false,
      "inputs": [],
      "name": "getResources",
      "outputs": [],
      "payable": false,
      "stateMutability": "nonpayable",
      "type": "function"
    }
  ],
  "bytecode": "0x60806040526000604051908082528060200260200182016040528015620000355781602001602082028038833980820191505090505b50600390805190602001906200004d929190620001ac565b503480156200005b57600080fd5b50604051620014e8380380620014e8833981018060405260408110156200008157600080fd5b8101908080516401000000008111156200009a57600080fd5b82810190506020810184811115620000b157600080fd5b8151856001820283011164010000000082111715620000cf57600080fd5b50509291906020018051640100000000811115620000ec57600080fd5b828101905060208101848111156200010357600080fd5b81518560018202830111640100000000821117156200012157600080fd5b505092919050505081600080019080519060200190620001439291906200023b565b5080600060010190805190602001906200015f9291906200023b565b5033600060020160006101000a81548173ffffffffffffffffffffffffffffffffffffffff021916908373ffffffffffffffffffffffffffffffffffffffff160217905550505062000330565b82805482825590600052602060002090810192821562000228579160200282015b82811115620002275782518260006101000a81548173ffffffffffffffffffffffffffffffffffffffff021916908373ffffffffffffffffffffffffffffffffffffffff16021790555091602001919060010190620001cd565b5b509050620002379190620002c2565b5090565b828054600181600116156101000203166002900490600052602060002090601f016020900481019282601f106200027e57805160ff1916838001178555620002af565b82800160010185558215620002af579182015b82811115620002ae57825182559160200191906001019062000291565b5b509050620002be919062000308565b5090565b6200030591905b808211156200030157600081816101000a81549073ffffffffffffffffffffffffffffffffffffffff021916905550600101620002c9565b5090565b90565b6200032d91905b80821115620003295760008160009055506001016200030f565b5090565b90565b6111a880620003406000396000f3fe608060405234801561001057600080fd5b50600436106100415760003560e01c80630c4f65bd146100465780631f1152c314610168578063c1cc57b0146102da575b600080fd5b61004e6102e4565b6040518080602001806020018473ffffffffffffffffffffffffffffffffffffffff1673ffffffffffffffffffffffffffffffffffffffff168152602001838103835286818151815260200191508051906020019080838360005b838110156100c45780820151818401526020810190506100a9565b50505050905090810190601f1680156100f15780820380516001836020036101000a031916815260200191505b50838103825285818151815260200191508051906020019080838360005b8381101561012a57808201518184015260208101905061010f565b50505050905090810190601f1680156101575780820380516001836020036101000a031916815260200191505b509550505050505060405180910390f35b6102d86004803603606081101561017e57600080fd5b810190808035906020019064010000000081111561019b57600080fd5b8201836020820111156101ad57600080fd5b803590602001918460018302840111640100000000831117156101cf57600080fd5b91908080601f016020809104026020016040519081016040528093929190818152602001838380828437600081840152601f19601f8201169050808301925050505050505091929192908035906020019064010000000081111561023257600080fd5b82018360208201111561024457600080fd5b8035906020019184600183028401116401000000008311171561026657600080fd5b91908080601f016020809104026020016040519081016040528093929190818152602001838380828437600081840152601f19601f820116905080830192505050505050509192919290803573ffffffffffffffffffffffffffffffffffffffff16906020019092919050505061045b565b005b6102e2610605565b005b6060806000806000016000600101600060020160009054906101000a900473ffffffffffffffffffffffffffffffffffffffff16828054600181600116156101000203166002900480601f0160208091040260200160405190810160405280929190818152602001828054600181600116156101000203166002900480156103ad5780601f10610382576101008083540402835291602001916103ad565b820191906000526020600020905b81548152906001019060200180831161039057829003601f168201915b50505050509250818054600181600116156101000203166002900480601f0160208091040260200160405190810160405280929190818152602001828054600181600116156101000203166002900480156104495780601f1061041e57610100808354040283529160200191610449565b820191906000526020600020905b81548152906001019060200180831161042c57829003601f168201915b50505050509150925092509250909192565b600083838360405161046c90610907565b8080602001806020018473ffffffffffffffffffffffffffffffffffffffff1673ffffffffffffffffffffffffffffffffffffffff168152602001838103835286818151815260200191508051906020019080838360005b838110156104df5780820151818401526020810190506104c4565b50505050905090810190601f16801561050c5780820380516001836020036101000a031916815260200191505b50838103825285818151815260200191508051906020019080838360005b8381101561054557808201518184015260208101905061052a565b50505050905090810190601f1680156105725780820380516001836020036101000a031916815260200191505b5095505050505050604051809103906000f080158015610596573d6000803e3d6000fd5b50905060038190806001815401808255809150509060018203906000526020600020016000909192909190916101000a81548173ffffffffffffffffffffffffffffffffffffffff021916908373ffffffffffffffffffffffffffffffffffffffff1602179055505050505050565b606080600080600090505b600380549050816fffffffffffffffffffffffffffffffff161015610901576003816fffffffffffffffffffffffffffffffff168154811061064e57fe5b9060005260206000200160009054906101000a900473ffffffffffffffffffffffffffffffffffffffff1673ffffffffffffffffffffffffffffffffffffffff1663b379c8a86040518163ffffffff1660e01b815260040160006040518083038186803b1580156106be57600080fd5b505afa1580156106d2573d6000803e3d6000fd5b505050506040513d6000823e3d601f19601f8201168201806040525060608110156106fc57600080fd5b81019080805164010000000081111561071457600080fd5b8281019050602081018481111561072a57600080fd5b815185600182028301116401000000008211171561074757600080fd5b5050929190602001805164010000000081111561076357600080fd5b8281019050602081018481111561077957600080fd5b815185600182028301116401000000008211171561079657600080fd5b5050929190602001805190602001909291905050508094508195508296505050507ff7a2a05c251b911a0a3773271214fb1d653cf8d9d682785530f2d4759cbd56718484846040518080602001806020018473ffffffffffffffffffffffffffffffffffffffff1673ffffffffffffffffffffffffffffffffffffffff168152602001838103835286818151815260200191508051906020019080838360005b83811015610851578082015181840152602081019050610836565b50505050905090810190601f16801561087e5780820380516001836020036101000a031916815260200191505b50838103825285818151815260200191508051906020019080838360005b838110156108b757808201518184015260208101905061089c565b50505050905090810190601f1680156108e45780820380516001836020036101000a031916815260200191505b509550505050505060405180910390a18080600101915050610610565b50505050565b610868806109158339019056fe608060405233600360006101000a81548173ffffffffffffffffffffffffffffffffffffffff021916908373ffffffffffffffffffffffffffffffffffffffff16021790555034801561005157600080fd5b506040516108683803806108688339810180604052606081101561007457600080fd5b81019080805164010000000081111561008c57600080fd5b828101905060208101848111156100a257600080fd5b81518560018202830111640100000000821117156100bf57600080fd5b505092919060200180516401000000008111156100db57600080fd5b828101905060208101848111156100f157600080fd5b815185600182028301116401000000008211171561010e57600080fd5b5050929190602001805190602001909291905050508260008001908051906020019061013b9291906101a2565b5081600060010190805190602001906101559291906101a2565b5080600060020160006101000a81548173ffffffffffffffffffffffffffffffffffffffff021916908373ffffffffffffffffffffffffffffffffffffffff160217905550505050610247565b828054600181600116156101000203166002900490600052602060002090601f016020900481019282601f106101e357805160ff1916838001178555610211565b82800160010185558215610211579182015b828111156102105782518255916020019190600101906101f5565b5b50905061021e9190610222565b5090565b61024491905b80821115610240576000816000905550600101610228565b5090565b90565b610612806102566000396000f3fe608060405234801561001057600080fd5b50600436106100415760003560e01c806383899e4414610046578063b379c8a8146101b8578063d85e949f146102da575b600080fd5b6101b66004803603606081101561005c57600080fd5b810190808035906020019064010000000081111561007957600080fd5b82018360208201111561008b57600080fd5b803590602001918460018302840111640100000000831117156100ad57600080fd5b91908080601f016020809104026020016040519081016040528093929190818152602001838380828437600081840152601f19601f8201169050808301925050505050505091929192908035906020019064010000000081111561011057600080fd5b82018360208201111561012257600080fd5b8035906020019184600183028401116401000000008311171561014457600080fd5b91908080601f016020809104026020016040519081016040528093929190818152602001838380828437600081840152601f19601f820116905080830192505050505050509192919290803573ffffffffffffffffffffffffffffffffffffffff169060200190929190505050610324565b005b6101c06103a0565b6040518080602001806020018473ffffffffffffffffffffffffffffffffffffffff1673ffffffffffffffffffffffffffffffffffffffff168152602001838103835286818151815260200191508051906020019080838360005b8381101561023657808201518184015260208101905061021b565b50505050905090810190601f1680156102635780820380516001836020036101000a031916815260200191505b50838103825285818151815260200191508051906020019080838360005b8381101561029c578082015181840152602081019050610281565b50505050905090810190601f1680156102c95780820380516001836020036101000a031916815260200191505b509550505050505060405180910390f35b6102e2610517565b604051808273ffffffffffffffffffffffffffffffffffffffff1673ffffffffffffffffffffffffffffffffffffffff16815260200191505060405180910390f35b8260008001908051906020019061033c929190610541565b508160006001019080519060200190610356929190610541565b5080600060020160006101000a81548173ffffffffffffffffffffffffffffffffffffffff021916908373ffffffffffffffffffffffffffffffffffffffff160217905550505050565b6060806000806000016000600101600060020160009054906101000a900473ffffffffffffffffffffffffffffffffffffffff16828054600181600116156101000203166002900480601f0160208091040260200160405190810160405280929190818152602001828054600181600116156101000203166002900480156104695780601f1061043e57610100808354040283529160200191610469565b820191906000526020600020905b81548152906001019060200180831161044c57829003601f168201915b50505050509250818054600181600116156101000203166002900480601f0160208091040260200160405190810160405280929190818152602001828054600181600116156101000203166002900480156105055780601f106104da57610100808354040283529160200191610505565b820191906000526020600020905b8154815290600101906020018083116104e857829003601f168201915b50505050509150925092509250909192565b6000600360009054906101000a900473ffffffffffffffffffffffffffffffffffffffff16905090565b828054600181600116156101000203166002900490600052602060002090601f016020900481019282601f1061058257805160ff19168380011785556105b0565b828001600101855582156105b0579182015b828111156105af578251825591602001919060010190610594565b5b5090506105bd91906105c1565b5090565b6105e391905b808211156105df5760008160009055506001016105c7565b5090565b9056fea165627a7a72305820df61c8e7cfbc7091416edbd0ccaec39edcb5e1d5d6972816bc69aa83f3b84db60029a165627a7a723058201bf380ae2e108b35668b7390553f9120b40e40a904db1d4105ddc488f7bb20950029",
  "source": "pragma solidity 0.5.8;\r\nimport \"./Info.sol\";\r\nimport \"./Resource.sol\";\r\n\r\ncontract Owner is Info {\r\n    AddressInfo owner_address;\r\n    Resource[] resources = new Resource[](0);\r\n    //functions to setup and get owner Information:\r\n    //setOwnerAddress function sets the ip and nae an blockchain address of owner:\r\n    //@param _name: real name of owner.\r\n    //@param _ip: IP address of owner.\r\n    //@param _chain_address retrieved from msg.sender.\r\n    constructor(string memory _name,string memory _ip)\r\n    public\r\n    {\r\n        owner_address.name=_name;\r\n        owner_address.ip=_ip;\r\n        owner_address.chain_address=msg.sender;\r\n    }\r\n    \r\n    function getOwnerAddress() \r\n    public \r\n    view \r\n    returns(string memory, string memory,address){\r\n        return (owner_address.name, owner_address.ip, owner_address.chain_address);\r\n    }\r\n    \r\n    //functions to set and get resource properties added by owner:\r\n    //function addResource()\r\n    //\r\n    function addResource(string memory name, string memory ip, address chain_address) public{\r\n        Resource new_instance = new Resource(name,ip,chain_address);\r\n        resources.push(new_instance);\r\n    }\r\n    \r\n    function getResources()\r\n    public\r\n    {\r\n        string memory name;\r\n        string memory ip;\r\n        address _addr;\r\n        for(uint128 index = 0; index < resources.length; index++){\r\n            (name, ip, _addr) = resources[index].getResourceInfo();\r\n            emit printResourceEvent(name, ip, _addr);\r\n        }\r\n        \r\n    }\r\n    \r\n    \r\n    //Event Defintions:\r\n    event printResourceEvent(string Name, string IP, address ChainAddress);\r\n}\r\n\r\n\r\n\r\n\r\n\r\n\r\n\r\n//ends",
  "sourcePath": "/mnt/d/My Job/Applications/Desktop Applications/Solidity/Uni-Project/University-Project/University-Project/contracts/Owner.sol",
  "compiler": {
    "name": "solc",
    "version": "0.5.8+commit.23d335f2.Emscripten.clang"
  },
  "schemaVersion": "3.0.10",
  "updatedAt": "2019-06-10T17:53:15.057Z",
  "devdoc": {
    "methods": {}
  },
  "userdoc": {
    "methods": {}
  }
}