{
  "contractName": "Resource",
  "abi": [
    {
      "inputs": [
        {
          "name": "_name",
          "type": "string"
        },
        {
          "name": "_ip",
          "type": "string"
        },
        {
          "name": "_chain_address",
          "type": "address"
        }
      ],
      "payable": false,
      "stateMutability": "nonpayable",
      "type": "constructor"
    },
    {
      "constant": false,
      "inputs": [
        {
          "name": "_name",
          "type": "string"
        },
        {
          "name": "_ip",
          "type": "string"
        },
        {
          "name": "_chain_address",
          "type": "address"
        }
      ],
      "name": "setResourceAddress",
      "outputs": [],
      "payable": false,
      "stateMutability": "nonpayable",
      "type": "function"
    },
    {
      "constant": true,
      "inputs": [],
      "name": "getResourceInfo",
      "outputs": [
        {
          "name": "",
          "type": "string"
        },
        {
          "name": "",
          "type": "string"
        },
        {
          "name": "",
          "type": "address"
        }
      ],
      "payable": false,
      "stateMutability": "view",
      "type": "function"
    },
    {
      "constant": true,
      "inputs": [],
      "name": "getResourceContract",
      "outputs": [
        {
          "name": "",
          "type": "address"
        }
      ],
      "payable": false,
      "stateMutability": "view",
      "type": "function"
    }
  ],
  "bytecode": "0x608060405233600360006101000a81548173ffffffffffffffffffffffffffffffffffffffff021916908373ffffffffffffffffffffffffffffffffffffffff16021790555034801561005157600080fd5b506040516108683803806108688339810180604052606081101561007457600080fd5b81019080805164010000000081111561008c57600080fd5b828101905060208101848111156100a257600080fd5b81518560018202830111640100000000821117156100bf57600080fd5b505092919060200180516401000000008111156100db57600080fd5b828101905060208101848111156100f157600080fd5b815185600182028301116401000000008211171561010e57600080fd5b5050929190602001805190602001909291905050508260008001908051906020019061013b9291906101a2565b5081600060010190805190602001906101559291906101a2565b5080600060020160006101000a81548173ffffffffffffffffffffffffffffffffffffffff021916908373ffffffffffffffffffffffffffffffffffffffff160217905550505050610247565b828054600181600116156101000203166002900490600052602060002090601f016020900481019282601f106101e357805160ff1916838001178555610211565b82800160010185558215610211579182015b828111156102105782518255916020019190600101906101f5565b5b50905061021e9190610222565b5090565b61024491905b80821115610240576000816000905550600101610228565b5090565b90565b610612806102566000396000f3fe608060405234801561001057600080fd5b50600436106100415760003560e01c806383899e4414610046578063b379c8a8146101b8578063d85e949f146102da575b600080fd5b6101b66004803603606081101561005c57600080fd5b810190808035906020019064010000000081111561007957600080fd5b82018360208201111561008b57600080fd5b803590602001918460018302840111640100000000831117156100ad57600080fd5b91908080601f016020809104026020016040519081016040528093929190818152602001838380828437600081840152601f19601f8201169050808301925050505050505091929192908035906020019064010000000081111561011057600080fd5b82018360208201111561012257600080fd5b8035906020019184600183028401116401000000008311171561014457600080fd5b91908080601f016020809104026020016040519081016040528093929190818152602001838380828437600081840152601f19601f820116905080830192505050505050509192919290803573ffffffffffffffffffffffffffffffffffffffff169060200190929190505050610324565b005b6101c06103a0565b6040518080602001806020018473ffffffffffffffffffffffffffffffffffffffff1673ffffffffffffffffffffffffffffffffffffffff168152602001838103835286818151815260200191508051906020019080838360005b8381101561023657808201518184015260208101905061021b565b50505050905090810190601f1680156102635780820380516001836020036101000a031916815260200191505b50838103825285818151815260200191508051906020019080838360005b8381101561029c578082015181840152602081019050610281565b50505050905090810190601f1680156102c95780820380516001836020036101000a031916815260200191505b509550505050505060405180910390f35b6102e2610517565b604051808273ffffffffffffffffffffffffffffffffffffffff1673ffffffffffffffffffffffffffffffffffffffff16815260200191505060405180910390f35b8260008001908051906020019061033c929190610541565b508160006001019080519060200190610356929190610541565b5080600060020160006101000a81548173ffffffffffffffffffffffffffffffffffffffff021916908373ffffffffffffffffffffffffffffffffffffffff160217905550505050565b6060806000806000016000600101600060020160009054906101000a900473ffffffffffffffffffffffffffffffffffffffff16828054600181600116156101000203166002900480601f0160208091040260200160405190810160405280929190818152602001828054600181600116156101000203166002900480156104695780601f1061043e57610100808354040283529160200191610469565b820191906000526020600020905b81548152906001019060200180831161044c57829003601f168201915b50505050509250818054600181600116156101000203166002900480601f0160208091040260200160405190810160405280929190818152602001828054600181600116156101000203166002900480156105055780601f106104da57610100808354040283529160200191610505565b820191906000526020600020905b8154815290600101906020018083116104e857829003601f168201915b50505050509150925092509250909192565b6000600360009054906101000a900473ffffffffffffffffffffffffffffffffffffffff16905090565b828054600181600116156101000203166002900490600052602060002090601f016020900481019282601f1061058257805160ff19168380011785556105b0565b828001600101855582156105b0579182015b828111156105af578251825591602001919060010190610594565b5b5090506105bd91906105c1565b5090565b6105e391905b808211156105df5760008160009055506001016105c7565b5090565b9056fea165627a7a72305820df61c8e7cfbc7091416edbd0ccaec39edcb5e1d5d6972816bc69aa83f3b84db60029",
  "source": "pragma solidity 0.5.8;\r\n// pragma experimental ABIEncoderV2;\r\nimport \"./Info.sol\";\r\n\r\ncontract Resource is Info{\r\n    //Variable Decleration:\r\n    //resource_address contains resource chain_address and IP and a name.\r\n    //we will put options to manipulate IP by DNS Smart Contract,\r\n    //but changing name and chain address will be changed just by Owner.\r\n    AddressInfo resource_address;\r\n    \r\n    //Owner contains Owner's address. \r\n    address owner_contract = msg.sender;\r\n    \r\n    //Functions Definitions:\r\n    //constructor of Resource Object\r\n    constructor(string memory _name,string memory _ip, address _chain_address) \r\n    public{\r\n        resource_address.name = _name;\r\n        resource_address.ip = _ip;\r\n        resource_address.chain_address = _chain_address;\r\n    }\r\n    \r\n    //still we use this function to edit object properties,\r\n    //but in furure  i think, i'm gonna split this function to set IP by DNS Smart Contracts\r\n    //and a function, just owner can change object address.\r\n    function setResourceAddress(string memory _name,string memory _ip, address _chain_address) \r\n    public{\r\n        resource_address.name = _name;\r\n        resource_address.ip = _ip;\r\n        resource_address.chain_address = _chain_address;\r\n    }\r\n    \r\n    //getResourceInfo, returns name,IP and address of an object\r\n    function getResourceInfo()\r\n    public\r\n    view\r\n    returns(string memory, string memory , address) {\r\n        return(resource_address.name, resource_address.ip, resource_address.chain_address);\r\n        \r\n    }\r\n    //getResourceOwner returns just Owner's address of this object,\r\n    //then using this address to request for accessing and controlling Subjects.\r\n    function getResourceContract()\r\n    public\r\n    view\r\n    returns(address) {\r\n        return(owner_contract);\r\n    }\r\n    //\r\n\r\n}\r\n\r\n\r\n\r\n\r\n\r\n\r\n",
  "sourcePath": "/mnt/d/My Job/Applications/Desktop Applications/Solidity/Uni-Project/University-Project/University-Project/contracts/Resource.sol",
  "compiler": {
    "name": "solc",
    "version": "0.5.8+commit.23d335f2.Emscripten.clang"
  },
  "schemaVersion": "3.0.10",
  "updatedAt": "2019-06-12T11:38:26.931Z",
  "devdoc": {
    "methods": {}
  },
  "userdoc": {
    "methods": {}
  }
}