{
  "contractName": "Resource",
  "abi": [
    {
      "inputs": [
        {
          "name": "_name",
          "type": "string"
        },
        {
          "name": "_ip",
          "type": "string"
        },
        {
          "name": "_chain_address",
          "type": "address"
        }
      ],
      "payable": false,
      "stateMutability": "nonpayable",
      "type": "constructor"
    },
    {
      "constant": false,
      "inputs": [
        {
          "name": "_name",
          "type": "string"
        },
        {
          "name": "_ip",
          "type": "string"
        },
        {
          "name": "_chain_address",
          "type": "address"
        }
      ],
      "name": "setResourceAddress",
      "outputs": [],
      "payable": false,
      "stateMutability": "nonpayable",
      "type": "function"
    },
    {
      "constant": true,
      "inputs": [],
      "name": "getResourceInfo",
      "outputs": [
        {
          "name": "",
          "type": "string"
        },
        {
          "name": "",
          "type": "string"
        },
        {
          "name": "",
          "type": "address"
        }
      ],
      "payable": false,
      "stateMutability": "view",
      "type": "function"
    }
  ],
  "bytecode": "0x608060405234801561001057600080fd5b506040516107a83803806107a88339810180604052606081101561003357600080fd5b81019080805164010000000081111561004b57600080fd5b8281019050602081018481111561006157600080fd5b815185600182028301116401000000008211171561007e57600080fd5b5050929190602001805164010000000081111561009a57600080fd5b828101905060208101848111156100b057600080fd5b81518560018202830111640100000000821117156100cd57600080fd5b505092919060200180519060200190929190505050826000800190805190602001906100fa929190610161565b508160006001019080519060200190610114929190610161565b5080600060020160006101000a81548173ffffffffffffffffffffffffffffffffffffffff021916908373ffffffffffffffffffffffffffffffffffffffff160217905550505050610206565b828054600181600116156101000203166002900490600052602060002090601f016020900481019282601f106101a257805160ff19168380011785556101d0565b828001600101855582156101d0579182015b828111156101cf5782518255916020019190600101906101b4565b5b5090506101dd91906101e1565b5090565b61020391905b808211156101ff5760008160009055506001016101e7565b5090565b90565b610593806102156000396000f3fe608060405234801561001057600080fd5b50600436106100365760003560e01c806383899e441461003b578063b379c8a8146101ad575b600080fd5b6101ab6004803603606081101561005157600080fd5b810190808035906020019064010000000081111561006e57600080fd5b82018360208201111561008057600080fd5b803590602001918460018302840111640100000000831117156100a257600080fd5b91908080601f016020809104026020016040519081016040528093929190818152602001838380828437600081840152601f19601f8201169050808301925050505050505091929192908035906020019064010000000081111561010557600080fd5b82018360208201111561011757600080fd5b8035906020019184600183028401116401000000008311171561013957600080fd5b91908080601f016020809104026020016040519081016040528093929190818152602001838380828437600081840152601f19601f820116905080830192505050505050509192919290803573ffffffffffffffffffffffffffffffffffffffff1690602001909291905050506102cf565b005b6101b561034b565b6040518080602001806020018473ffffffffffffffffffffffffffffffffffffffff1673ffffffffffffffffffffffffffffffffffffffff168152602001838103835286818151815260200191508051906020019080838360005b8381101561022b578082015181840152602081019050610210565b50505050905090810190601f1680156102585780820380516001836020036101000a031916815260200191505b50838103825285818151815260200191508051906020019080838360005b83811015610291578082015181840152602081019050610276565b50505050905090810190601f1680156102be5780820380516001836020036101000a031916815260200191505b509550505050505060405180910390f35b826000800190805190602001906102e79291906104c2565b5081600060010190805190602001906103019291906104c2565b5080600060020160006101000a81548173ffffffffffffffffffffffffffffffffffffffff021916908373ffffffffffffffffffffffffffffffffffffffff160217905550505050565b6060806000806000016000600101600060020160009054906101000a900473ffffffffffffffffffffffffffffffffffffffff16828054600181600116156101000203166002900480601f0160208091040260200160405190810160405280929190818152602001828054600181600116156101000203166002900480156104145780601f106103e957610100808354040283529160200191610414565b820191906000526020600020905b8154815290600101906020018083116103f757829003601f168201915b50505050509250818054600181600116156101000203166002900480601f0160208091040260200160405190810160405280929190818152602001828054600181600116156101000203166002900480156104b05780601f10610485576101008083540402835291602001916104b0565b820191906000526020600020905b81548152906001019060200180831161049357829003601f168201915b50505050509150925092509250909192565b828054600181600116156101000203166002900490600052602060002090601f016020900481019282601f1061050357805160ff1916838001178555610531565b82800160010185558215610531579182015b82811115610530578251825591602001919060010190610515565b5b50905061053e9190610542565b5090565b61056491905b80821115610560576000816000905550600101610548565b5090565b9056fea165627a7a72305820a3ecaa7529d2f3d9dcafd5deb9dcefec65a78776f4bef98b376ab1ba0e643f160029",
  "source": "pragma solidity 0.5.8;\n// pragma experimental ABIEncoderV2;\nimport \"./Info.sol\";\n\ncontract Resource is Info{\n    AddressInfo resource_address;\n    constructor(string memory _name,string memory _ip, address _chain_address) \n    public{\n        resource_address.name = _name;\n        resource_address.ip = _ip;\n        resource_address.chain_address = _chain_address;\n    }\n    \n    function setResourceAddress(string memory _name,string memory _ip, address _chain_address) \n    public{\n        resource_address.name = _name;\n        resource_address.ip = _ip;\n        resource_address.chain_address = _chain_address;\n    }\n    \n    function getResourceInfo()\n    public\n    view\n    returns(string memory, string memory , address) {\n        return(resource_address.name, resource_address.ip, resource_address.chain_address);\n    }\n\n}\n\n\n\n\n\n\n",
  "sourcePath": "/mnt/d/My Job/Applications/DesktopApps/Ethereum/University-Project/contracts/Resource.sol",
  "compiler": {
    "name": "solc",
    "version": "0.5.8+commit.23d335f2.Emscripten.clang"
  },
  "schemaVersion": "3.0.10",
  "updatedAt": "2019-06-09T16:25:03.287Z",
  "devdoc": {
    "methods": {}
  },
  "userdoc": {
    "methods": {}
  }
}